:020000040800F2
:1000000000500020191B0008B5040008B7040008C0
:10001000B9040008BB040008BD040008000000008B
:10002000000000000000000000000000BF04000805
:10003000C104000800000000C3040008C504000853
:10004000611B0008611B0008611B0008611B0008A0
:10005000611B0008611B0008611B0008611B000890
:10006000611B0008611B0008611B0008611B000880
:10007000611B0008611B0008611B0008611B000870
:10008000611B0008611B0008611B0008611B000860
:10009000611B0008611B0008611B0008611B000850
:1000A000611B0008611B0008611B0008611B000840
:1000B000611B0008CD040008611B0008611B0008DB
:1000C000611B0008611B0008611B0008611B000820
:1000D000611B0008DD040008611B0008611B0008AB
:1000E000611B0008611B0008611B00080000000084
:1000F0000000000000000000000000000000000000
:0C01000000000000000000005FF808F1A3
:10010C0010B5054C237833B9044B13B10448AFF345
:10011C0000800123237010BD70000020000000003F
:10012C00042B000808B5034B1BB103490348AFF37C
:10013C00008008BD0000000074000020042B0008A3
:10014C0008B502F0CFFC08BD08B5044B19784A1C61
:10015C001A70034801F032FD08BD00BF8C0000206E
:10016C001C2B00080268044B9A4200D07047034BCA
:10017C0001221A70FAE700BF00040040980000202A
:10018C0072B6FEE700B591B02822002106A801F056
:10019C000DFD002301930293039304930593012215
:1001AC0006924FF4803307930A9202220D920E931B
:1001BC004FF4E0130F9306A800F004FF80B90F234F
:1001CC00019302210291002303934FF48062049265
:1001DC00059301A801F028F920B911B05DF804FBD2
:1001EC00FFF7CEFFFFF7CCFF08B500F0B1FEFFF72D
:1001FC00C9FF00F0A5F800F0DFF801F02FFC114862
:10020C0000F0BEF900F02AF80F4C22464FF4FA71B8
:10021C000E4800F04DF822464FF47A710C4800F06D
:10022C0047F80C4B1B78012BFBD10A4B00221A70A0
:10023C00094C2146044B186800F054F8204600F095
:10024C006BF8EEE7F0010020940000204D0100084F
:10025C00550100089800002090000020002207E0C3
:10026C00511C084B03EB011003EB0213D8600A4638
:10027C000E2AF5DD034B0022C3F8FC20024A136062
:10028C00704700BFA00000209C000020034B1868A2
:10029C0018B1C2681A600023C36070479C0000202C
:1002AC00024B1A68C2601860704700BF9C000020A7
:1002BC007AB170B504460D46164668B1FFF7E6FFF5
:1002CC0068B10460456085603268C26030600020AF
:1002DC0070BD6FF0010070476FF00100F8E74FF050
:1002EC00FF30F5E738B504460D4602E06368A360BD
:1002FC00E46884B1A368002BFAD0013BA360002B07
:10030C00F6D1FFF7C3FF0028F0D0226802602A68FC
:10031C00C2602860EAE738BD88B138B504686CB1B2
:10032C000022026004E098472046FFF7B9FF2C46F4
:10033C0024B1E5682368002BF5D1F5E738BD70478B
:10034C0030B589B000240494059406940794184B96
:10035C009A6942F010029A619A6902F010020192B5
:10036C00019A9A6942F020029A619A6902F020027D
:10037C000292029A9A6942F004029A619B6903F014
:10038C0004030393039B0B4D22464FF40051284664
:10039C0001F038FA4FF400530493012305930694AB
:1003AC000223079304A9284601F01AF909B030BDBD
:1003BC00001002400010014008B50A480A4B0360C7
:1003CC004FF4E133436000238360C36003610C226C
:1003DC0042618361C36100F095FB00B908BDFFF772
:1003EC00CFFEFBE7A00100200038014030B587B0FC
:1003FC000023029303930493059302681B4B9A42C8
:10040C0001D007B030BD03F558439A6942F48042DD
:10041C009A619A6902F480420092009A9A6942F0B9
:10042C0004029A619B6903F004030193019B4FF44E
:10043C000073029302230393032305930C4D02A92B
:10044C00284601F0CDF84FF4806302930024039406
:10045C00049402A9284601F0C3F82246214625201F
:10046C0001F060FA252001F095FACAE70038014046
:10047C0000080140044B1B6813F0400FFAD0C2B2C5
:10048C00014B5A60704700BF0038014070B50C46F4
:10049C001646002504E014F8010BFFF7EBFF0135BD
:1004AC00B542F8DB304670BDFEE7FEE7FEE7FEE73F
:1004BC00FEE770477047704708B500F05BFD08BD5C
:1004CC0008B5024800F094F808BD00BFF001002008
:1004DC0008B5024800F0D2FB08BD00BFA001002007
:1004EC0082B00E4B9A6942F001029A619A6902F04D
:1004FC0001020092009ADA6942F08052DA61DB69FB
:10050C0003F080530193019B054A536823F0E06389
:10051C0043F00073536002B0704700BF00100240FC
:10052C000000014010B4036A046A24F00104046260
:10053C00846924F0F00C4CEA021223F00A030B43FA
:10054C008261036210BC704710B4036A046A24F021
:10055C0010040462846924F4704C4CEA023223F0D7
:10056C00A00343EA01138261036210BC70478368E5
:10057C0023F070030B4343F00703836070470000C4
:10058C0090F83D30DBB2012B27D1022380F83D30AF
:10059C000268D36843F00103D3600368114A9342A5
:1005AC0010D0B3F1804F0DD0A2F59432934209D004
:1005BC0002F58062934205D01A6842F001021A607B
:1005CC00002070479A6802F00702062A07D01A68C2
:1005DC0042F001021A600020704701207047002091
:1005EC00704700BF002C0140704770477047704740
:1005FC0070B504460368DE681D6915F0020F10D053
:10060C0016F0020F0DD06FF002021A61012303776E
:10061C0003689B6913F0030F5ED0FFF7E6FF00231E
:10062C00237715F0040F12D016F0040F0FD02368A7
:10063C006FF004021A610223237723689B6913F479
:10064C00407F4FD02046FFF7D0FF0023237715F0D3
:10065C00080F12D016F0080F0FD023686FF00802A5
:10066C001A61042323772368DB6913F0030F40D04E
:10067C002046FFF7BAFF0023237715F0100F12D096
:10068C0016F0100F0FD023686FF010021A610823B8
:10069C0023772368DB6913F4407F31D02046FFF7C2
:1006AC00A4FF0023237715F0010F02D016F0010FE1
:1006BC002DD115F0800F02D016F0800F2FD115F030
:1006CC00400F02D016F0400F31D115F0200F02D0A0
:1006DC0016F0200F33D170BDFFF786FF2046FFF7D1
:1006EC0085FF9CE72046FFF77FFF2046FFF77EFF44
:1006FC00ABE72046FFF778FF2046FFF777FFBAE716
:10070C002046FFF771FF2046FFF770FFC9E723680B
:10071C006FF001021A612046FFF724FDC9E7236838
:10072C006FF080021A61204600F043F9C7E7236896
:10073C006FF040021A612046FFF759FFC5E72368A6
:10074C006FF020021A61204600F032F9C3E7000076
:10075C0003681F4A90420AD0B0F1804F07D0A2F52F
:10076C009432904203D002F58062904203D123F080
:10077C0070034A681343164A90420AD0B0F1804F76
:10078C0007D0A2F59432904203D002F580629042D9
:10079C0003D123F44073CA68134323F080034A69DE
:1007AC00134303608B68C3620B688362084B9842E7
:1007BC000AD001234361036913F0010F03D00369CD
:1007CC0023F00103036170470B690363F1E700BF7A
:1007DC00002C014040B310B5044690F83D30F3B105
:1007EC00022384F83D30214651F8040BFFF7B0FF8B
:1007FC00012384F8463084F83E3084F83F3084F886
:10080C00403084F8413084F8423084F8433084F826
:10081C00443084F8453084F83D30002010BD80F819
:10082C003C3001F053F9DBE70120704710B48468C9
:10083C0024F47F4C42EA03220A4342EA0C0282600F
:10084C0010BC704790F83C30012B78D010B50446A2
:10085C00012380F83C30022380F83D300268936815
:10086C0023F47F4323F0770393600B68602B4CD009
:10087C0029D8402B54D00CD9502B22D1CA684968A6
:10088C000068FFF74FFE50212068FFF770FE002034
:10089C0005E0202B0DD009D9302B0AD001200123E3
:1008AC0084F83D30002384F83C3010BD0BB1102B84
:1008BC0005D119462068FFF75AFE0020EFE701200A
:1008CC00EDE70120EBE7B3F5805F34D0B3F5005FC3
:1008DC000CD1CB684A6889680068FFF7A7FF2268CB
:1008EC00936843F4804393600020D8E7702B24D1A5
:1008FC00CB684A6889680068FFF798FF226893689C
:10090C0043F0770393600020C9E7CA684968006820
:10091C00FFF71AFE60212068FFF729FE0020BEE7D2
:10092C00CA6849680068FFF7FDFD40212068FFF7A1
:10093C001EFE0020B3E70020B1E70120AFE7022044
:10094C007047000090F83C30012B2CD010B40123E0
:10095C0080F83C30022380F83D3003685A689C686C
:10096C0022F0700C0A6842EA0C025A6003680F4AC3
:10097C0093420AD0B3F1804F07D0A2F59432934240
:10098C0003D002F58062934204D124F080044A68BB
:10099C0014439C60012380F83D30002380F83C30E8
:1009AC00184610BC70470220704700BF002C014055
:1009BC0070477047026802F10C0353E8003F23F4C0
:1009CC0090730C3242E800310029F3D1026802F135
:1009DC00140353E8003F23F00103143242E80031C2
:1009EC000029F3D1036B012B05D0202380F8423072
:1009FC00002303637047026802F10C0353E8003FC5
:100A0C0023F010030C3242E800310029F3D1ECE75B
:100A1C0090F84130DBB2212B01D002207047836863
:100A2C00B3F5805F17D0036A5A1C02621A78036808
:100A3C005A60C38C9BB2013B9BB2C3844BB9026816
:100A4C00D36823F08003D3600268D36843F040037B
:100A5C00D360002070470369002BE4D1036A1B8824
:100A6C000268C3F308035360036A02330362E0E7CE
:100A7C0010B504460268136923F44053C1680B4354
:100A8C00136183680269134342691A430168CB6896
:100A9C0023F4B05323F00C031343CB600268536967
:100AAC0023F4407381690B4353610268134B9A42E0
:100ABC0020D000F075FD024602EB820202EB8202AE
:100ACC0063689B00B2FBF3F20D48A0FB02314909AD
:100ADC00642303FB11231B013233A0FB03235B09AB
:100AEC0003F0F00202EB011203F00F032168134430
:100AFC008B6010BD00F064FD0246DDE7003801405C
:100B0C001F85EB5160B310B5044690F8413013B318
:100B1C00242384F841302268D36823F40053D36033
:100B2C002046FFF7A5FF2268136923F49043136155
:100B3C002268536923F02A0353612268D36843F473
:100B4C000053D36000206064202384F8413084F883
:100B5C004230606310BD80F84030FFF747FCD7E7A8
:100B6C0001207047704708B50168CA6822F040023E
:100B7C00CA60202280F84120FFF7F4FF002008BD56
:100B8C007047704708B5406A0023C385C384FFF7DC
:100B9C00F8FF08BD704790F84230DBB2222B69D1C8
:100BAC008368B3F5805F4FD0826AB3F5805F04D061
:100BBC00002B56D10369002B53D103685B6813706B
:100BCC00836A01338362C38D9BB2013B9BB2C385A5
:100BDC00002B51D100B583B00268D36823F02003F9
:100BEC00D3600268D36823F48073D36002685369BE
:100BFC0023F001035361202380F842300023436328
:100C0C00036B012B33D100230363026802F10C0345
:100C1C0053E8003F23F010030C3242E80031002966
:100C2C00F3D103681A6812F0100F06D0002201925B
:100C3C001A6801925B680193019B818DFFF7AAFFF3
:100C4C00002003B05DF804FB0269002AACD1826A73
:100C5C0003685B68C3F308031380836A02338362FF
:100C6C00B1E703685B6803F07F031370A8E7FFF735
:100C7C0087FFE5E7022070470020704730B583B04E
:100C8C00044602681368D068516913F00F0505D14A
:100C9C0013F0200F02D010F0200F19D12DB111F04C
:100CAC00010119D110F4907F16D1216B01297DD04F
:100CBC0013F0800F03D010F0800F40F0188113F068
:100CCC00400F03D010F0400F40F0158103B030BD41
:100CDC002046FFF760FFF9E713F0010F06D010F480
:100CEC00807F03D0626C42F00102626413F0040F47
:100CFC0004D019B1626C42F00202626413F0020F6C
:100D0C0004D019B1626C42F00402626413F0080F53
:100D1C0007D010F0200F00D119B1626C42F008021C
:100D2C006264626C002AD1D013F0200F02D010F054
:100D3C00200F29D123685B6903F04003626C12F029
:100D4C00080F00D163B32046FFF734FE23685B69BC
:100D5C0013F0400F20D0226802F1140353E8003F37
:100D6C0023F04003143242E800310029F3D1E36B45
:100D7C0073B1634A5A63E06B00F076FD0028A5D08E
:100D8C00E06B436B9847A1E72046FFF704FFD1E7E0
:100D9C002046FFF7F6FE99E72046FFF7F2FE95E7AF
:100DAC002046FFF7EEFE002363648FE713F0100F6D
:100DBC003FF47EAF10F0100F3FF47AAF0023019395
:100DCC001368019353680193019B536913F0400F0F
:100DDC0051D0E26B13685B689BB2002B3FF476AF8B
:100DEC00A18D99427FF672AFE3859369202B37D0A2
:100DFC00226802F10C0353E8003F23F480730C3299
:100E0C0042E800310029F3D1226802F1140353E8BF
:100E1C00003F23F00103143242E800310029F3D1E2
:100E2C00226802F1140353E8003F23F0400314320C
:100E3C0042E800310029F3D1202384F8423000230A
:100E4C002363226802F10C0353E8003F23F01003E4
:100E5C000C3242E800310029F3D1E06B00F0E1FCE8
:100E6C0002236363A18DE38D9BB2C91A89B220461C
:100E7C00FFF790FE2AE7A18DE38D9BB2C91A89B2C8
:100E8C00E38D9BB2002B3FF421AF00293FF41EAF42
:100E9C00226802F10C0353E8003F23F490730C32E8
:100EAC0042E800300028F3D1226802F1140353E821
:100EBC00003F23F00103143242E800300028F3D144
:100ECC00202384F8423000232363226802F10C03B0
:100EDC0053E8003F23F010030C3242E800300028A6
:100EEC00F3D1022363632046FFF754FEEEE620465F
:100EFC00FFF78EFDEAE62046FFF735FEE6E600BF7B
:100F0C00910B000810B504460E4B18784FF47A7309
:100F1C00B3FBF0F30C4A1068B0FBF3F000F048FDA3
:100F2C0068B90F2C01D901200AE0002221464FF0AC
:100F3C00FF3000F0F7FC054B1C60002000E00120A6
:100F4C0010BD00BF0000002008000020040000209D
:100F5C0008B5074A136843F010031360032000F030
:100F6C00CFFC0F20FFF7CEFFFFF7BAFA002008BD29
:100F7C0000200240034A1168034B1B780B4413609A
:100F8C00704700BFE801002000000020014B1868EA
:100F9C00704700BFE801002082B0084B1B68084A6C
:100FAC00A2FB03235B0A00FB03F3019300BF019B2D
:100FBC005A1E0192002BF9D102B070470800002094
:100FCC00D34D6210002800F0F18170B582B0044658
:100FDC00036813F0010F2CD0994B5B6803F00C03E2
:100FEC00042B1DD0964B5B6803F00C03082B12D01E
:100FFC006368B3F5803F41D0002B55D103F180439A
:10100C0003F504331A6822F480321A601A6822F449
:10101C0080221A6037E08A4B5B6813F4803FE7D07C
:10102C00874B1B6813F4003F03D06368002B00F060
:10103C00BF81236813F0020F75D0814B5B6813F0EE
:10104C000C0F5FD07E4B5B6803F00C03082B54D065
:10105C002369002B00F08A807A4B01221A60FFF77B
:10106C0095FF0546764B1B6813F0020F75D1FFF701
:10107C008DFF401B0228F5D903209EE1704A1368AE
:10108C0043F480331360636843B3FFF77FFF054677
:10109C006B4B1B6813F4003FCBD1FFF777FF401B62
:1010AC006428F5D9032088E1B3F5A02F09D0644B4F
:1010BC001A6822F480321A601A6822F480221A60AC
:1010CC00E1E703F18043A3F53C331A6842F4802234
:1010DC001A601A6842F480321A60D4E7FFF756FFA0
:1010EC000546574B1B6813F4003FA2D0FFF74EFF89
:1010FC00401B6428F5D903205FE1514B5B6813F466
:10110C00803FA5D14E4B1B6813F0020F03D023690F
:10111C00012B40F04F814A4A136823F0F8036169B0
:10112C0043EAC1031360236813F0080F33D0A3699B
:10113C00002B5CD0434B0122C3F88024FFF726FF21
:10114C0005463F4B5B6A13F0020F21D1FFF71EFFE0
:10115C00401B0228F5D903202FE1394A136823F0EC
:10116C00F803616943EAC1031360DCE7354B0022E5
:10117C001A60FFF70BFF0546314B1B6813F0020F8B
:10118C00D1D0FFF703FF401B0228F5D9032014E14F
:10119C000120FFF701FF236813F0040F00F0968085
:1011AC00274BDB6913F0805F34D1254BDA6942F0B1
:1011BC008052DA61DB6903F080530193019B0125B6
:1011CC00214B1B6813F4807F26D0E368012B3DD0A4
:1011DC00002B53D103F1804303F504331A6A22F038
:1011EC0001021A621A6A22F004021A6233E0154BE9
:1011FC000022C3F88024FFF7C9FE0546104B5B6A3A
:10120C0013F0020FC7D0FFF7C1FE401B0228F5D91F
:10121C000320D2E00025D3E70B4A136843F4807314
:10122C001360FFF7B3FE0646074B1B6813F4807F71
:10123C00CBD1FFF7ABFE801B6428F5D90320BCE0B3
:10124C000010024000004242007000405F4A136AE6
:10125C0043F001031362E36833B3FFF797FE0646CE
:10126C005A4B1B6A13F0020F2FD1FFF78FFE801B16
:10127C0041F288339842F3D903209EE0052B09D024
:10128C00524B1A6A22F001021A621A6A22F0040204
:10129C001A62E0E74D4B1A6A42F004021A621A6AAB
:1012AC0042F001021A62D6E7FFF770FE0646474B82
:1012BC001B6A13F0020F08D0FFF768FE801B41F287
:1012CC0088339842F3D9032077E0E5B9E369002B22
:1012DC0072D03E4A526802F00C02082A56D0022BF9
:1012EC0017D03B4B00221A66FFF750FE0446374BD3
:1012FC001B6813F0007F47D0FFF748FE001B022845
:10130C00F5D9032059E0314AD36923F08053D361D6
:10131C00DCE72F4B00221A66FFF738FE05462B4BF5
:10132C001B6813F0007F06D0FFF730FE401B02282D
:10133C00F5D9032041E0236AB3F5803F1AD0234945
:10134C004B6823F47413226A606A024313434B60A4
:10135C001F4B01221A66FFF719FE04461B4B1B6834
:10136C0013F0007F0ED1FFF711FE001B0228F5D9F8
:10137C00032022E0154A536823F40033A1680B4381
:10138C005360DCE7002018E0002016E0012B16D09B
:10139C000E4B5B6803F48031226A914211D103F445
:1013AC007013626A93420ED1002006E00120704750
:1013BC00012002E0012000E0002002B070BD0120FD
:1013CC00FBE70120F9E70120F7E700BF001002401E
:1013DC00000042420F4B5B6803F00C02082A01D05C
:1013EC000D487047C3F383420C49885C13F4803F6B
:1013FC000BD0084B5B68C3F34043094AD35C064AE5
:10140C0002FB00F0B0FBF3F07047064B03FB00F05F
:10141C00704700BF0010024000127A00342B000805
:10142C00442B000800093D00002800F0A08070B596
:10143C000D460446524B1B6803F007038B420BD23C
:10144C004F4A136823F007030B431360136803F030
:10145C0007038B4240F08D80236813F0020F17D0E6
:10146C0013F0040F04D0474A536843F4E06353600D
:10147C00236813F0080F04D0424A536843F46053B6
:10148C005360404A536823F0F003A1680B43536048
:10149C00236813F0010F31D06368012B20D0022B8D
:1014AC0025D0384A126812F0020F64D035494A68C8
:1014BC0022F0030213434B60FFF768FD0646314BE5
:1014CC005B6803F00C036268B3EB820F16D0FFF776
:1014DC005DFD801B41F288339842F0D9032045E032
:1014EC00284A126812F4003FE0D101203EE0254A60
:1014FC00126812F0007FD9D1012037E0204B1B6815
:10150C0003F00703AB420AD91D4A136823F0070303
:10151C002B431360136803F00703AB422DD12368F0
:10152C0013F0040F06D0174A536823F4E063E16804
:10153C000B435360236813F0080F07D0114A53680C
:10154C0023F46053216943EAC1035360FFF742FF60
:10155C000C4B5B68C3F303130B4AD35CD8400B4BA7
:10156C0018600B4B1868FFF7CDFC002070BD0120F4
:10157C0070470120FAE70120F8E70120F6E700BFE9
:10158C000020024000100240482B000808000020F8
:10159C0004000020014B1868704700BF08000020B1
:1015AC0008B5FFF7F7FF044B5B68C3F30223034A4C
:1015BC00D35CD84008BD00BF00100240582B000877
:1015CC0008B5FFF7E7FF044B5B68C3F3C223034A7C
:1015DC00D35CD84008BD00BF00100240582B000857
:1015EC0070B582B00024A446A6E0804DAA4210D06B
:1015FC0007D97F4DAA420CD005F58035AA4208D0F8
:10160C0013E0A5F58015AA4203D005F57025AA4272
:10161C0007D18A68002A58D0012A51D04361082486
:10162C0003E0A5F58015AA42F3D0BEF1FF0F4ED80A
:10163C000646BEF1FF0F4CD84FEA8C0233680F25DB
:10164C00954023EA050304FA02F2134333604B6816
:10165C0013F0805F6ED0674B9A6942F001029A6179
:10166C009B6903F001030193019B4FEA9C02951CBB
:10167C00614B53F825600CF003039D000F23AB4026
:10168C0026EA03065D4B984229D003F58063984205
:10169C0000F08E8003F58063984200F08B8003F598
:1016AC008063984219D004231AE0CC68BDE7CC685B
:1016BC000434BAE7CC680834B7E7CC680C34B4E728
:1016CC0003610824B1E70024AFE70424ADE7061D4D
:1016DC00AFE7ACF108029200B0E7032300E000236F
:1016EC00AB4033430232444D45F822304B6813F47F
:1016FC00801F61D0424A936843EA0E0393604B68A3
:10170C0013F4001F5ED03E4AD36843EA0E03D36045
:10171C004B6813F4003F5BD0394A536843EA0E031D
:10172C0053604B6813F4803F58D0354A136843EA32
:10173C000E0313600CF1010C0A6832FA0CF353D04F
:10174C00012303FA0CF302EA030E33EA0202F1D18D
:10175C004A68122A3FF649AF122A3FF666AF01A536
:10176C0055F822F01F160008B7160008C11600081D
:10177C00D31600083716000837160008371600086D
:10178C0037160008371600083716000837160008F9
:10179C0037160008371600083716000837160008E9
:1017AC003716000837160008BB160008C7160008C5
:1017BC00012395E7022393E7114A936823EA0E036A
:1017CC0093609CE70E4AD36823EA0E03D3609FE72D
:1017DC000B4A536823EA0E035360A2E7084A1368C6
:1017EC0023EA0E031360A5E702B070BD00002210BF
:1017FC0000003110001002400000014000080140C0
:10180C00000401400AB1016170470904016170478D
:10181C00C36801EA030221EA030141EA02410161C2
:10182C00704790F82130DBB2022B06D0042383637F
:10183C00002380F82030012070470268136823F0E1
:10184C000E0313600268136823F001031360036C2A
:10185C00C16B012202FA03F34B6080F821200023B4
:10186C0080F820301846704708B590F82130DBB26C
:10187C00022B03D004238363012008BD0268136884
:10188C0023F00E0313600268136823F00103136046
:10189C000368194A934214D0143293421FD0143265
:1018AC0093421ED0143293421ED0143293421ED057
:1018BC001432934202D04FF0807203E04FF4801246
:1018CC0000E001220D4B5A60012380F821300023E7
:1018DC0080F82030436B6BB198470020CDE7102285
:1018EC00F0E74FF48072EDE74FF48052EAE74FF4E3
:1018FC008032E7E70020C0E7080002400000024009
:10190C00074AD36823F4E0631B041B0C000200F4A9
:10191C00E060034343F0BF6343F40033D36070478C
:10192C0000ED00E000B5194BDB68C3F30223C3F1F3
:10193C00070CBCF1040F28BF4FF0040C03F1040E8C
:10194C00BEF1060F18D9033B4FF0FF3E0EFA0CFC0C
:10195C0021EA0C0199400EFA03F322EA030319431E
:10196C0000280BDB0901C9B200F1604000F56140B1
:10197C0080F800135DF804FB0023E5E700F00F008E
:10198C000901C9B2024B1954F4E700BF00ED00E0A5
:10199C0014ED00E0002807DB00F01F0240090123D2
:1019AC009340024A42F82030704700BF00E100E04B
:1019BC000138B0F1807F0BD24FF0E0235861054A1B
:1019CC00F02182F823100020986107221A617047D9
:1019DC000120704700ED00E07047000010B5034691
:1019EC000C4A0D490D48006840B10C48006803448E
:1019FC00521A934206D8094A136010BD0748084C86
:101A0C000460F2E700F0A8F80C2303604FF0FF30FD
:101A1C00F3E700BF0050002000040000EC010020A0
:101A2C004802002070B50C461646002506E0AFF3C0
:101A3C000080214601F8010B01350C46B542F6DB5E
:101A4C00304670BD4FF0FF3070474FF400534B6081
:101A5C0000207047012070470020704700B587B008
:101A6C000023029303930493059300930193154869
:101A7C00154A026040F2CF22426083606322C2604A
:101A8C00036180238361FEF7A5FE90B94FF4805368
:101A9C00029302A90B48FEF7D5FE68B90023009308
:101AAC00019369460748FEF74DFF40B907B05DF852
:101ABC0004FBFEF765FBE9E7FEF762FBEEE7FEF7DA
:101ACC005FFBF3E7F00100200004004002680E4BBE
:101ADC009A4200D0704700B583B003F50333DA693E
:101AEC0042F00202DA61DB6903F002030193019B0D
:101AFC00002211461D20FFF715FF1D20FFF74AFF9E
:101B0C0003B05DF804FB00BF00040040FFF764FF66
:101B1C000B480C490C4A002302E0D458C45004333F
:101B2C00C4188C42F9D3094A094C002301E0136014
:101B3C000432A242FBD300F015F8FEF755FB7047B8
:101B4C000000002070000020002C00087000002015
:101B5C0048020020FEE70000014B1868704700BFE8
:101B6C000C00002070B500260C4D0D4C641BA4100D
:101B7C00A64209D100F0C0FF00260A4D0A4C641B96
:101B8C00A410A64205D170BD55F8043B9847013608
:101B9C00EEE755F8043B98470136F2E7F82B0008BE
:101BAC00F82B0008F82B0008FC2B00080346024415
:101BBC00934200D1704703F8011BF9E70FB40A4BAD
:101BCC0013B51C6824B1A36913B9204600F066F85C
:101BDC0005AB2046049AA168019300F0BBF902B052
:101BEC00BDE8104004B070470C000020002310B575
:101BFC000446C0E90033C0E9043383608181436645
:101C0C00C2818361194608225C30FFF7CFFF054B78
:101C1C0024626362044BA362044BE362044B2363B0
:101C2C0010BD00BF0D2500082F25000867250008F2
:101C3C008B250008014900F0AFB800BF5D280008F3
:101C4C00682270B54D1E55430E4605F1740100F027
:101C5C00E5F8044640B10021C0E900160C30A06044
:101C6C0005F16802FFF7A2FF204670BD014800F0A5
:101C7C00B3B800BF39020020014800F0AEB800BF75
:101C8C0039020020014800F0A7B800BF3A0200203A
:101C9C00014800F0A2B800BF3A02002010B504467B
:101CAC00FFF7F0FFA3691BB1BDE81040FFF7F0BFD1
:101CBC00C4E912332365134B134A1B68A262A34277
:101CCC0008BF0123204608BFA36100F01FF8606025
:101CDC00204600F01BF8A060204600F017F8002208
:101CEC000421E0606068FFF781FF01220921A068F0
:101CFC00FFF77CFF02221221E068FFF777FF012338
:101D0C00A361D1E7602B0008411C0008F8B5074619
:101D1C00FFF7ACFF1E4B1E68B36913B93046FFF7D3
:101D2C00BDFF4836D6E90134013B03D533680BB30C
:101D3C003668F7E7B4F90C50D5B9164B04F15800D6
:101D4C00E360656600F047F8FFF796FF0822294626
:101D5C00C4E90155C4E904552560A56104F15C0092
:101D6C00FFF724FFC4E90D55C4E912552046F8BD10
:101D7C006834D9E704213846FFF762FF0446306027
:101D8C000028D5D1FFF778FF0C233B60EEE700BFAE
:101D9C00602B00080100FFFF2DE9F843064688463A
:101DAC00002700F14804D4E90195B9F1010905D5E2
:101DBC002468002CF7D13846BDE8F883AB89012B99
:101DCC0007D9B5F90E30013303D029463046C04748
:101DDC0007436835E9E770477047704770B50E4E9A
:101DEC000C463168054611B900F07AFB306021468B
:101DFC00284600F075FB431C0AD0C41C24F00304D5
:101E0C00A04207D0211A284600F06AFB013001D10C
:101E1C004FF0FF34204670BD400200202DE9F04108
:101E2C00CD1C25F0030508350C2D38BF0C25002DD5
:101E3C00074601DBA94205D90C2300263B6030463E
:101E4C00BDE8F0812E4E00F0C5FD33681C4634BB56
:101E5C0029463846FFF7C2FF431C04464DD134686F
:101E6C002646002E40D123683146384604EB030841
:101E7C0000F036FB80453AD1216803356D1A25F008
:101E8C00030508350C2D38BF0C2538462946FFF7BD
:101E9C00A5FF01302BD023682B4423600EE0226871
:101EAC00521B1ED40B2A16D96119A342256018BFE8
:101EBC005960636808BF316062514B60384604F169
:101ECC000B0600F08DFD26F00706231DF21AB6D086
:101EDC009B1BA350B3E76268A3420CBF32605A60ED
:101EEC00ECE723466468B2E734467668B9E70C231E
:101EFC0038463B6000F074FDA1E72560DEE700BFCB
:101F0C003C020020936810B4013B002B936007DA6D
:101F1C009469A34201DB0A2902D110BC00F034BB46
:101F2C001368581C10601970084610BC7047F8B53F
:101F3C0006460F461446D518AC4201D1002007E0E6
:101F4C003A46304614F8011BFFF7DCFF431CF3D173
:101F5C00F8BD00002DE9F04F0D4614469846064694
:101F6C009DB018B183690BB9FFF798FE894B9D4260
:101F7C001BD175686B6ED90705D4AB899A0502D451
:101F8C00A86DFFF729FFAB891B0701D52B69EBB9AE
:101F9C002946304600F05CFBC0B16B6EDC070ED5F9
:101FAC004FF0FF301DB0BDE8F08F7B4B9D4201D14F
:101FBC00B568DFE7794B9D4208BFF568DAE7AB8976
:101FCC009805EDD4A86DFFF708FFE9E70023099306
:101FDC0020238DF8293030234FF00109CDF80C80E7
:101FEC00DFF8BC818DF82A3023469A4613F8012B72
:101FFC000AB1252AF9D1BAEB040B0BD05B46224669
:10200C0029463046FFF793FF013000F0AA80099A69
:10201C005A4409929AF80030002B00F0A280002359
:10202C004FF0FF32CDE905230AF1010A049307931F
:10203C008DF853301A935446052214F8011B584856
:10204C0000F0BAFC049AD8B9D10644BF20238DF80D
:10205C005330130744BF2B238DF853309AF80030BC
:10206C002A2B15D0544600204FF00A0C079A214613
:10207C0011F8013B303B092B4ED9B0B1079214E05B
:10208C00A0EB080309FA03F31343A2460493D2E727
:10209C00039B191D1B680391002BBBBF5B4242F0D5
:1020AC00020207930793B8BF049223782E2B0CD10E
:1020BC0063782A2B35D1039B02341A1D1B680392BB
:1020CC00002BB8BF4FF0FF330593DFF8D8A00322E5
:1020DC005046217800F070FC40B14023A0EB0A0080
:1020EC0003FA00F0049B01340343049314F8011B1E
:1020FC0006222D488DF8281000F05EFC00283FD0F9
:10210C002A4B1BBB039B073323F0070308330393B2
:10211C00099B3B44099367E70C4601200CFB0232F8
:10212C00A5E700234FF00A0C19460134059320460D
:10213C0010F8012B303A092A03D9002BC5D0059190
:10214C00C3E7044601230CFB0121F0E703AB00932A
:10215C002A463046164B04A9AFF300800746781C7C
:10216C00D6D16B6ED90705D4AB899A0502D4A86D6C
:10217C00FFF733FEAB895B063FF512AF099811E709
:10218C0003AB00932A463046094B04A900F082F8B1
:10219C00E4E700BF842B0008A42B0008642B000884
:1021AC00C42B0008CA2B0008CE2B0008000000002E
:1021BC003B1F00082DE9F047164699468A680B69C3
:1021CC0007469342B8BF1346336091F843200C4640
:1021DC00DDF820800AB1013333602368990642BFD1
:1021EC00336802333360256815F0060506D104F117
:1021FC00190AE36832689B1AAB4228DC94F8432036
:10220C00131E226818BF012392062DD44946384666
:10221C0004F14302C047013020D02368E56803F085
:10222C000603042B18BF002532684FF00006A36884
:10223C0008BFAD1A226908BF25EAE5759342C4BFF1
:10224C009B1AED181A34B5421AD1002008E001236C
:10225C00524649463846C047013003D14FF0FF3053
:10226C00BDE8F0870135C4E73020E11881F8430060
:10227C005A1C94F845102244023382F84310C5E7E7
:10228C000123224649463846C0470130E6D0013684
:10229C00D9E700002DE9FF470F7E9146782F804645
:1022AC000C469A460C9D01F1430207D8622F0AD8BE
:1022BC00002F00F0D980582F00F0A48004F14205C3
:1022CC0084F842703AE0A7F16303152BF6D801A10C
:1022DC0051F823F0392300084D230008C9220008C7
:1022EC00C9220008C9220008C92200084D23000891
:1022FC00C9220008C9220008C9220008C922000806
:10230C005B2400087D2300083D240008C922000836
:10231C00C92200087D240008C92200087D2300087A
:10232C00C9220008C9220008452400082B681A1D80
:10233C001B682A6004F1420584F842300123A4E0B2
:10234C0020682968060601F104030AD50E682B6083
:10235C00002E03DA2D23764284F843300A235E489C
:10236C0019E00E6810F0400F2B6018BF36B2EFE783
:10237C002B682068191D2960010601D51E6802E032
:10238C004606FBD51E886F2F0CBF08230A23524824
:10239C00002184F843106568002DA8BF2168A56052
:1023AC00A4BF21F0040121600EB9002D4DD01546BB
:1023BC00B6FBF3F103FB1167C75D05F8017D3746EA
:1023CC00BB420E46F4D9082B0BD12368DE0708D587
:1023DC00236961689942DEBF302305F8013C05F1A1
:1023EC00FF35521B22614B4621464046CDF800A0DA
:1023FC0003AAFFF7DFFE01304CD14FF0FF3004B0E1
:10240C00BDE8F087344881F845702968236851F895
:10241C00046B29601D0614D5DF0744BF43F020036D
:10242C0023601EB9236823F0200323601023AFE739
:10243C00236843F0200323607823284884F8453030
:10244C00E3E7590648BFB6B2E6E71546BBE72B688B
:10245C002668181D6169286035061B6801D519604E
:10246C0002E07006FBD51980002315462361BAE7FC
:10247C002B6800211A1D2A601D686268284600F02E
:10248C009BFA08B1401B606063682361002384F8E9
:10249C004330A8E72A46494640462369D0470130D5
:1024AC00ABD023689B0713D4E068039B9842B8BF5A
:1024BC001846A4E70123324649464046D04701302E
:1024CC009BD00135E36803995B1AAB42F2DCEBE776
:1024DC00002504F11906F5E7D52B0008E62B0008BA
:1024EC0038B50023054D044608462B60FFF776FAF5
:1024FC00431C02D12B6803B1236038BD4402002079
:10250C0010B50C46B1F90E1000F0B8FA0028ABBFAC
:10251C00636DA3891B1823F48053ACBF6365A3813F
:10252C0010BD2DE9F0411F468B890546DB050C4695
:10253C00164605D502230022B1F90E1000F0C4F99D
:10254C00A389324623F48053A38128463B46B4F931
:10255C000E10BDE8F04100F069B810B50C46B1F9A9
:10256C000E1000F0B1F9431CA38915BF606523F46C
:10257C00805343F48053A38118BFA38110BDB1F9DC
:10258C000E1000F0D3B80000F8B50E461446054600
:10259C0018B183690BB9FFF781FB214B9C422BD1FE
:1025AC006C68A369A360A3891A072FD523696BB341
:1025BC0023692068F6B2C01A63693746834204DC8B
:1025CC002146284600F044F930BBA3680130013B9A
:1025DC00A36023685A1C22601E706369834204D076
:1025EC00A389DB0706D50A2E04D12146284600F024
:1025FC002FF988B93846F8BD0A4B9C4201D1AC681A
:10260C00CFE7094B9C4208BFEC68CAE72146284635
:10261C0000F01EF80028CBD04FF0FF37EAE700BFE0
:10262C00842B0008A42B0008642B000838B5044642
:10263C00084611460022054D2A601A46FDF726FF72
:10264C00431C02D12B6803B1236038BD4402002027
:10265C00324B70B51D6806460C4625B1AB6913B9F3
:10266C002846FFF71BFB2E4B9C420FD16C68A389AD
:10267C00B4F90C2019072CD4DD0611D409233360CE
:10268C0042F040034FF0FF30A3813EE0254B9C42CB
:10269C0001D1AC68EBE7244B9C4208BFEC68E6E741
:1026AC00580712D5616B41B104F14403994202D031
:1026BC00304600F09BF900236363A38923F02403C5
:1026CC00A3810023636023692360A38943F008037B
:1026DC00A38123694BB9A38903F42073B3F5007F5D
:1026EC0003D02146304600F027F9A089B4F90C201C
:1026FC0010F001030AD00023A36063695B42A3615D
:10270C00236943B910F08000BAD170BD810758BF5E
:10271C006369A360F4E70020F7E700BF0C0000201A
:10272C00842B0008A42B0008642B000838B5002368
:10273C00054D044608462B60FFF784F9431C02D173
:10274C002B6803B1236038BD440200208A89F8B598
:10275C00054610070C4657D44B68002B04DC0B6C59
:10276C00002B01DC0020F8BDE66A002EFAD0002315
:10277C0012F480522F682B6032D0606DA3895A07F7
:10278C0005D56368C01A636B0BB1236CC01A0023A8
:10279C000246E66A2846216AB047431CA38906D143
:1027AC0029681D292CD8294ACA40D60728D50022C9
:1027BC0062602269D904226004D5421C01D12B68C5
:1027CC0003B96065616B2F600029CBD004F1440321
:1027DC00994202D0284600F009F900206063C2E754
:1027EC00216A01232846B047411CC7D12B68002B16
:1027FC00C4D01D2B01D0162B01D12F60B2E7A389B9
:10280C0043F04003A381AEE70F69002FAAD09307D2
:10281C0018BF00230E6808BF4B69F61B0F608B6056
:10282C00002E9FDD33463A462846216AD4F828C04C
:10283C00E047002806DCA3894FF0FF3043F040034B
:10284C00A38190E70744361AEAE700BF0100402055
:10285C0038B50B6905460C4613B90025284638BD1A
:10286C0018B183690BB9FFF719FA144B9C421BD1B1
:10287C006C68B4F90C30002BEFD0626ED00704D426
:10288C00990502D4A06DFFF7A7FA28462146FFF759
:10289C005DFF636E0546DA07E0D4A3899B05DDD4A2
:1028AC00A06DFFF79AFAD9E7054B9C4201D1AC68B1
:1028BC00DFE7044B9C4208BFEC68DAE7842B000886
:1028CC00A42B0008642B000838B5044608461146B2
:1028DC000022054D2A601A46FFF7BEF8431C02D1B0
:1028EC002B6803B1236038BD4402002070B50E463E
:1028FC00B1F90E10144600291D4696B008DA0022D4
:10290C00B6F90C302A601A0610D44FF480630EE02E
:10291C006A4600F0C5F80028F1DB019A02F4704217
:10292C00A2F500535A425A412A60EEE74023002098
:10293C00236016B070BD00008B8973B59D070646E9
:10294C000C4607D504F1470323602361012363611F
:10295C0002B070BD6A4601ABFFF7C8FF009905468F
:10296C003046FFF75BFA48B9B4F90C309A05EFD44E
:10297C0023F0030343F00203A381E3E70D4BB3629F
:10298C00A389206043F08003A381009B20616361D5
:10299C00019B5BB13046B4F90E1000F093F828B1EE
:1029AC00A38923F0030343F00103A381A08905430A
:1029BC00A581CDE7411C0008034610B5C9B20244FD
:1029CC009342184601D1002003E0047801338C4275
:1029DC00F6D110BD0148FFF7FFB900BF3802002047
:1029EC000148FFF7FAB900BF3802002038B5054698
:1029FC00002940D051F8043C0C1F002BB8BFE41840
:102A0C00FFF7E8FF1C4A136833B96360146028466B
:102A1C00BDE83840FFF7E4BFA34208D9206821186D
:102A2C008B4201BF19685B6809182160EDE71A46F3
:102A3C005B680BB1A342FAD911685018A0420BD1B4
:102A4C0020680144501883421160E0D118685B681B
:102A5C00014411605360DAE702D90C232B60D6E7EE
:102A6C00206821188B4201BF19685B680918216026
:102A7C0063605460CBE738BD3C02002038B5044697
:102A8C00084611460022054D2A601A46FEF7CAFF79
:102A9C00431C02D12B6803B1236038BD44020020D3
:102AAC0038B50023064D0446084611462B60FEF748
:102ABC00CCFF431C02D12B6803B1236038BD00BF8F
:102ACC004402002038B50023054D044608462B600F
:102ADC00FEF7C0FF431C02D12B6803B1236038BD45
:102AEC004402002008B54FF400510248FEF790FE56
:102AFC0008BD00BF00100140F8B500BFF8BC08BC11
:102B0C009E467047F8B500BFF8BC08BC9E4670479F
:102B1C007461736B207072696E742072756E6E695D
:102B2C00672025640A000000020304050607080953
:102B3C000A0B0C0D0E0F101001020000000000001B
:102B4C000000000001020304060708090000000051
:102B5C00010203041000002000000000000000002F
:102B6C000000000000000000000000000000000059
:102B7C000000000000000000000000000000000049
:102B8C000000000000000000000000000000000039
:102B9C000000000000000000000000000000000029
:102BAC000000000000000000000000000000000019
:102BBC000000000000000000232D302B2000686C6A
:102BCC004C00656667454647003031323334353644
:102BDC00373839414243444546003031323334357D
:0C2BEC00363738396162636465660000AA
:042BF800310100089F
:042BFC000D010008BF
:102C0000010000001000000000127A0010000020F7
:102C100000000000842B0008A42B0008642B00088F
:102C200000000000000000000000000000000000A4
:102C30000000000000000000000000000000000094
:102C40000000000000000000000000000000000084
:102C50000000000000000000000000000000000074
:102C60000000000000000000000000000000000064
:0400000508001B19BB
:00000001FF
